:10000000DDEF01F00000000000EF00F00000000054
:0A0010000000000000000000F3D71C
:0A001C00530E0D6E0D2EFED71200DC
:10002600240E0C6EB50E0D6E0D2EFED70C2EFCD7C3
:06003600000000001200B2
:0C003C00000000000000000000001200A6
:100048000101C9BF02D0819E01D0818EC9BD02D0F5
:10005800819C01D0818CC9BB02D0819A01D0818A50
:10006800C9B902D0819801D081888DB102D082822D
:1000780001D082928284DEDF8294C9B702D0819E49
:1000880001D0818EC9B502D0819C01D0818CC9B3C1
:1000980002D0819A01D0818AC9B102D0819801D059
:1000A80081888DB102D0828201D082928284C2DF9F
:0E00B80082948DA102D0B3DF01D0ACDF120024
:0E00C60001018D91C4C1C9F1BCDF8D81120012
:0C00D400100E0D6E0D2EFED70000120065
:1000E0000101C46BC66BC76B100EC86F040EC75DF1
:1000F0001DE2F00E836EC81D956EA0DF9FDF0F0E10
:100100008314006E00C0C5F100520AE0C6C1C4F1FC
:10011000C55304E0C533C59FC42BFAD7040EC76F7F
:10012000C837C891040EC627C72BE0D7C4C100F05A
:020130001200BB
:1001320010D0800E0101BF6F1AD0C00EBF6F17D052
:10014200940EBF6F14D0D40EBF6F11D0800EBF6F4C
:100152000ED00101BF51010AECE0BF51020AEDE0ED
:10016200BF51030AEDE0BF51040AEDE0EFD7C0052D
:10017200006EBF51002600C0BFF18D8100C0C9F1E1
:0E01820062DF8D91C1C1C9F15EDF8D81120077
:10019000A7DF00C0BFF10F0E8314006E02E09ADFEC
:0801A000FAD7BFC100F0120004
:1001A800086A080E0C6E003408360450085ED8B091
:0E01B80002D00826D89000360C2EF5D7120083
:0601C600FF0E956E120011
:1001CC0010D0800E0101BF6F1AD0C00EBF6F17D0B8
:1001DC00940EBF6F14D0D40EBF6F11D0800EBF6FB2
:1001EC000ED00101BF51010AECE0BF51020AEDE053
:1001FC00BF51030AEDE0BF51040AEDE0EFD7C00593
:10020C00006EBF51002600C0BFF100C0C9F116DF5F
:10021C008D91C36BC351C125E96E000EC221EA6EEC
:10022C00EE520BE0C351C125E96E000EC221EA6EFD
:0E023C00EECFC4F142DFC32BEDD78D8112004F
:10024A00949494929398939A939C939E8294829274
:10025A00819E819C819A8198E1DEE0DEDFDE818ADF
:10026A0081888284E6DE8294D9DE8284E2DE829408
:10027A00D5DE8284DEDE8294D1DE81988284D9DE64
:10028A008294CCDE8284D5DE8294819A818E8284A5
:10029A00D0DE8294C3DE819E81888284CADE829403
:1002AA0081988284C6DE8294B9DE8284C2DE829418
:1002BA0081888284BEDE8294B1DE81988284B9DE2E
:1002CA008294818E818C818A81888284B2DE829432
:0802DA00A5DE01018D81120077
:0E02E200ACB202D00000FCD7BFC1ADFF1200CD
:1002F000E20E0101966F020E976FBF0E986F010E0E
:10030000996F480E9A6F030E9B6F000E9C6F000E44
:100310009D6FFF0E8E6FFF0E8F6F000E906F000EA1
:10032000916FFF0E926FFF0E936F000E946F000E91
:10033000956FAC8A900EAB6E948E949C9EAA03D05F
:08034000AECF00F0FBD7120064
:10034800AECF01F0ABA202D0AB98AB8801C000F0F1
:02035800120091
:10035A000900F5CFE6FF0006FBE10106F9E112000C
:10036A000B6A0A6A096A00500402F4CF09F0F3CF53
:10037A0008F001500502F4CF0BF0F3CF0AF0005059
:10038A000502F3500926F4500A22E86A0B220150AA
:10039A000402F3500926F4500A22E86A0B2208C024
:1003AA0000F009C001F00AC002F00BC003F012000D
:1003BA00D6EC06F09488948A948000DFC36AC46AF3
:1003CA00C16AC06A3DDF010EC96F39DE0C0EC96F02
:1003DA0036DE010EBF6F010EC06F330EC16F000E05
:1003EA00C26FEFDE82BA8DD1020EBF6F010EC06FEF
:1003FA00490EC16F000EC26FE4DEB886020EB06EFF
:10040A00080EAF6EAC846FDF030E0B6E8A0E0C6E95
:10041A00550E0D6E0D2EFED70C2EFCD70B2EFAD7CD
:10042A00000000008CDF00C049F1000E01014A6F94
:10043A00800E4A19006E800E005C02E1140E495DBE
:10044A00D8B05ED1020EBF6F010EC06F1E0EC16F13
:10045A00000EC26FB6DE4B6B4C6B49C101F04AC14C
:10046A0002F0013601900236800E4C19006E800EA1
:10047A000218005C02E101504B5D1FE2030E0B6E95
:10048A008A0E0C6E550E0D6E0D2EFED70C2EFCD755
:10049A000B2EFAD7000000004F0E4B25BD6F010E40
:1004AA004C21BE6F4CDFBDC1E1FFBEC1E2FF00C0FF
:1004BA00E6FF01014B4B4C2BD0D76D6B6E6B800E58
:1004CA006E19006E800E4A19005C02E149516D5D99
:1004DA00D8B0CCD0020EBF6F010EC06F5E0EC16FD6
:1004EA00000EC26F6EDE6DC100F06EC101F0003603
:1004FA00009001364F0E0024E96E010E0120EA6ECB
:10050A00EECF4DF1004A012A4F0E0024E96E010E8A
:10051A000120EA6EEECF00F000C04EF14DC129F184
:10052A0000C02AF115C000F0000E016E16C004F0DA
:10053A0017C005F015DF00C027F101C028F14B6B89
:10054A004C6B800E4C19006E800E1718005C02E18D
:10055A0016504B5D76E229C102F00236029002364D
:10056A0002900236029002360290050E016E29C1EF
:10057A0000F0015004E00032009EFF0FFBD702504A
:10058A00001A29510024036E0B0E026E27C100F0D7
:10059A0028C101F0025007E001320032019E01BC7D
:1005AA00018EFF0FF8D7030E0016000E01161A0E61
:1005BA000024D96E000E0120DA6EDE502725006E67
:1005CA000350001A00502A5D056E05C02AF1155025
:1005DA00275D036E000E2859046E03C027F104C07C
:1005EA0028F105C002F00236029002360290023665
:1005FA00029002360290050E016E05C000F001500D
:10060A0004E00032009EFF0FFBD70250001A05508B
:10061A000024026E030E0314006E04C001F0000EE3
:10062A0001161A0E0024D96E000E0120DA6EDE5071
:10063A000324006E0250001A0050295F4B4B4C2BCA
:10064A0080D729C14DF12AC14EF12B0E6D25E16EDD
:10065A00010E6E21E26E0A0E4D03F3CF00F04E51E9
:10066A00002600C0E6FF6D4B6E2B29D74B6B4C6BF7
:10067A00800E4C19006E800E4A19005C02E1495145
:10068A004B5D3EE218C0BFF119C0C0F12B0E4B25DD
:10069A00E96E010E4C21EA6EEECFC1F145DD192A51
:1006AA00800E140A006E800E1918005CD8A0182A51
:1006BA00800E140A016E800E1918015C010ED8B062
:1006CA00000E016E1850040A010ED8A4000E006E26
:1006DA000150001612E0030EBF6F010EC06FBD0E6F
:1006EA00C16F000EC26F6DDD040EBF6F010EC06FC9
:1006FA00D20EC16F000EC26F64DD4B4B4C2BB8D7C4
:10070A0071D682AAC2D2020EBF6F010EC06FB20E9C
:10071A00C16F000EC26F55DD4B6B4C6B800E4C19CE
:10072A00006E800E005C02E1140E4B5DD8B03AD127
:10073A009E6B020EBF6F010EC06FE70EC16F000EF7
:10074A00C26F3FDD20DD00C09EF182A001D02AD118
:10075A009E53F8E082A862D030D0410E9E6F5DD0E1
:10076A00420E9E6F5AD0430E9E6F57D0440E9E6F14
:10077A0054D0450E9E6F51D0460E9E6F4ED0470EF6
:10078A009E6F4BD0480E9E6F48D0490E9E6F45D043
:10079A004A0E9E6F42D04B0E9E6F3FD04C0E9E6FFC
:1007AA003CD04D0E9E6F39D04E0E9E6F36D04F0EF6
:1007BA009E6F33D0500E9E6F30D09E51010ACDE00D
:1007CA009E51020ACDE09E51030ACDE09E51040AD1
:1007DA00CDE09E51050ACDE09E51060ACDE09E511C
:1007EA00070ACDE09E51080ACDE09E51090ACDE0E4
:1007FA009E510A0ACDE09E510B0ACDE09E510C0A89
:10080A00CDE09E510D0ACDE09E510E0ACDE09E51DB
:10081A000F0ACDE09E51100ACDE072D082B870D096
:10082A0034D0510E9E6F61D0520E9E6F5ED0530E21
:10083A009E6F5BD0540E9E6F58D0550E9E6F55D04A
:10084A00560E9E6F52D0570E9E6F4FD0580E9E6F07
:10085A004CD0590E9E6F49D05A0E9E6F46D0210E2B
:10086A009E6F43D03F0E9E6F40D0270E9E6F3DD0A5
:10087A00200E9E6F3AD01107010E4B5F000E4C5BA3
:10088A009E6B33D0230E9E6F30D09E51010AC9E071
:10089A009E51020AC9E09E51030AC9E09E51040A08
:1008AA00C9E09E51050AC9E09E51060AC9E09E5157
:1008BA00070AC9E09E51080AC9E09E51090AC9E01F
:1008CA009E510A0AC9E09E510B0AC9E09E510C0AC0
:1008DA00C9E09E510D0AC9E09E510E0AC9E09E5117
:1008EA000F0AC9E09E51100ACDE09E51000A08E1A4
:1008FA0018C0BFF111C1C0F19EC1C1F115DC19D7F1
:10090A00020EBF6F010EC06F120EC16F010EC26FD1
:10091A0058DC9F0E4B25E16E010E4C21E26E9EC102
:10092A00E6FF18C0BFF111C1C0F19F0E4B25E96E59
:10093A00010E4C21EA6EEECFC1F199EC00F0494B61
:10094A004A2B112B800E140A006E800E1119005CBE
:10095A00D8A0182A800E140A016E800E1119015CA3
:10096A00010ED8B0000E016E1850040A010ED8A468
:10097A00000E006E0150001612E0030EBF6F010E4A
:10098A00C06FFC0EC16F000EC26F1BDC040EBF6F7E
:10099A00010EC06F880EC16F000EC26F12DC4B4B86
:1009AA004C2BBCD6020EBF6F010EC06F9D0EC16FDD
:1009BA00000EC26F06DC6D6B6E6B800E6E19006ED8
:1009CA00800E4A19005C02E149516D5DD8B0CED063
:1009DA009F0E6D25BD6F010E6E21BE6FBDC1E9FF71
:1009EA00BEC1EAFFEECF00F00A0E046ED4EC00F0AE
:1009FA0000C04DF1BDC1E9FFBEC1EAFFEECF00F074
:100A0A000A0E046ED4EC00F008C000F000C04EF1EB
:100A1A004DC129F100C02AF1276B286B4B6B4C6B37
:100A2A00800E4C19006E800E1718005C02E11650F9
:100A3A004B5D75E22AC102F002360290023602903C
:100A4A000236029002360290050E016E2AC100F0AB
:100A5A00015004E00032009EFF0FFBD70250001A3B
:100A6A002A510024026E030E2715006E28C101F0D8
:100A7A00000E01161A0E0024D96E000E0120DA6E3D
:100A8A00DE502725006E0250001A00502925036EF9
:100A9A0003C029F115502725046E000E2821056E82
:100AAA0004C027F105C028F103C002F00236029003
:100ABA00023602900236029002360290050E016E4C
:100ACA0003C000F0015004E00032009EFF0FFBD784
:100ADA000250001A005003260B0E026E04C000F0EA
:100AEA0005C001F0025007E001320032019E01BC4C
:100AFA00018EFF0FF8D7030E0016000E01161A0E0C
:100B0A000024D96E000E0120DA6EDE500424006E35
:100B1A000350001A00502A274B4B4C2B81D729C16E
:100B2A004DF12AC14EF16DC100F06EC101F00036DF
:100B3A00009001366F0E0024E16E010E0120E26E74
:100B4A004DC1E6FF6DC100F06EC101F000360090A4
:100B5A000136004A012A6F0E0024E16E010E0120BF
:100B6A00E26E4EC1E6FF6D4B6E2B27D7020EBF6FAA
:100B7A00010EC06F730EC16F000EC26FE6EC00F07B
:100B8A00B886020EB06E080EAF6EAC8478EC01F037
:100B9A00030E0B6E8A0E0C6E550E0D6E0D2EFED7C1
:100BAA000C2EFCD70B2EFAD70000000049C1BFF16A
:100BBA0071EC01F001014B6B4C6B800E4C19006E0D
:100BCA00800E4A19005C02E149514B5D44E24BC177
:100BDA0000F04CC101F00036009001366F0E00247F
:100BEA00E96E010E0120EA6EEECFBFF171EC01F061
:100BFA00030E0B6E8A0E0C6E550E0D6E0D2EFED761
:100C0A000C2EFCD70B2EFAD7000000004BC100F0C7
:100C1A004CC101F0003600900136004A012A6F0EDD
:100C2A000024E96E010E0120EA6EEECFBFF171ECED
:100C3A0001F0030E0B6E8A0E0C6E550E0D6E0D2E04
:100C4A00FED70C2EFCD70B2EFAD7000000000101AC
:100C5A004B4B4C2BB2D74B6B4C6B800E4C19006E26
:100C6A00800E4A19005C02E149514B5D0BE26F0E9E
:100C7A004B25E16E010E4C21E26E200EE66E4B4BC7
:100C8A004C2BEBD7496B4A6B3CD5F7EF01F0FFD7FA
:100DAC0010EE15F0120E006E020E016E9A0EF66E1B
:0E0DBC000C0EF76E000EF86EADEC01F012009A
:010C9A00B9A0
:020C9B00200037
:010C9D000353
:010C9E000154
:040C9F003377BBFFED
:100CA300536C617665202F207265636569766520D4
:050CB3002020202000BC
:100CB80057656C636F6D6520746F2043727970742B
:060CC80061212020200044
:100CCE00536C6176652020202020202020202020BB
:050CDE00202020200091
:100CE300536C617665202F206465636F64652E2ED7
:050CF3002E202020006E
:100CF8004D6173746572202F2073656E64696E6729
:050D08002E2E2E20003C
:100D0D0020202020202020202020202020202020D6
:050D1D00202020200051
:100D22004D6173746572202F20656E636F64696E06
:050D3200672E2E2E00CB
:0B0D37004D61737465722020202000C5
:100D420020202020202020202020202020202020A1
:050D520020202020001C
:100D5700202020202020202020202020202020208C
:050D6700202020200007
:100D6C004D6173746572202F206B6579626F6172AF
:050D7C00642E2E2E0084
:100D81002020202020202020202020202020202062
:050D91002020202000DD
:010D9600015B
:100D97004D6173746572202F20646973706C61797B
:050DA700696E672E00DB
:020000040030CA
:0E000000000C1F1EFF8381FF0FC00FE00F409A
:00000001FF
